{
  "contractName": "myFirstContract",
  "abi": [
    {
      "constant": true,
      "inputs": [],
      "name": "balance",
      "outputs": [
        {
          "name": "",
          "type": "uint256"
        }
      ],
      "payable": false,
      "stateMutability": "view",
      "type": "function",
      "signature": "0xb69ef8a8"
    },
    {
      "inputs": [],
      "payable": false,
      "stateMutability": "nonpayable",
      "type": "constructor",
      "signature": "constructor"
    },
    {
      "constant": true,
      "inputs": [],
      "name": "getBalance",
      "outputs": [
        {
          "name": "",
          "type": "uint256"
        }
      ],
      "payable": false,
      "stateMutability": "view",
      "type": "function",
      "signature": "0x12065fe0"
    }
  ],
  "bytecode": "0x608060405234801561001057600080fd5b50606460008190555060d9806100276000396000f3fe6080604052600436106049576000357c0100000000000000000000000000000000000000000000000000000000900463ffffffff16806312065fe014604e578063b69ef8a8146076575b600080fd5b348015605957600080fd5b506060609e565b6040518082815260200191505060405180910390f35b348015608157600080fd5b50608860a7565b6040518082815260200191505060405180910390f35b60008054905090565b6000548156fea165627a7a72305820c0454b244ad38c3001470c7411ab92356febb7fbdfac9e193b69668b45018f3b0029",
  "source": "pragma solidity^0.5.0;\ncontract myFirstContract{\n    uint public balance;\n    function getBalance() public view returns (uint){\n        return balance;\n    }\n    constructor() public{\n        balance=100;\n    }\n}\n",
  "sourcePath": "/home/yash/Downloads/CS731/Assignment-2/test/contracts/myFirstContract.sol",
  "compiler": {
    "name": "solc",
    "version": "0.5.0+commit.1d4f565a.Emscripten.clang"
  },
  "schemaVersion": "3.0.2",
  "updatedAt": "2019-02-15T12:35:54.030Z",
  "devdoc": {
    "methods": {}
  },
  "userdoc": {
    "methods": {}
  }
}